S01500006C63645F696E746572666163652E73726563CC
S11300000C9434000C9449000C9449000C9449005D
S11300100C9449000C9449000C9449000C94490038
S11300200C9449000C9449000C9449000C94490028
S11300300C9449000C9449000C9449000C94490018
S11300400C9449000C9449000C9449000C94490008
S11300500C9449000C9449000C9449000C944900F8
S11300600C9449000C94490011241FBECFEFD8E032
S1130070DEBFCDBF11E0A0E0B1E0E6EFF3E002C0E7
S113008005900D92AC38B107D9F70E9466010C9423
S1130090F9010C94000084B1807F84B95E9A5B9866
S11300A000002C9A000083B18295807F00002C9878
S11300B000002C9A000093B100002C9800008823C3
S11300C084F35E9884B18F6084B90895282F2295B3
S11300D02F708F70611102C05B9801C05B9A0000A1
S11300E02C9A95B1907F922B95B900002C98000022
S11300F02C9A95B1907F892B85B900002C9800002B
S11301000E944B0008950F931F93CF93DF938C01AC
S1130110FC018081882309F18532A9F4E801219644
S1130120F80181818053883020F461E00E946600E8
S11301300EC061E085E20E94660061E0F801818101
S11301400E94660004C061E00E946600E8018E011E
S11301500F5F1F4F89818111DFCFDF91CF911F91F5
S11301600F910895EF92FF920F931F93CF93DF9314
S113017000D000D01F92CDB7DEB77B01FE013196CF
S113018025E0DF011D922A95E9F7009761F0FE0151
S113019036962AE030E0B9010E94D1018293862F7D
S11301A0972F0097C1F7BFEFEB16FB0669F429817F
S11301B021110FC0FE01329600E010E00F5F1F4FC7
S11301C021912223D9F307C005E010E00E191F097D
S11301D002C000E010E0992324F461E08DE20E9463
S11301E0660005301105A4F4E1E0F0E0EC0FFD1F1A
S11301F00E0F1F1F7E01F6E0EF0EF11CD8018D914A
S11302008D0161E0805D0E9466000E151F05B1F747
S11302100F900F900F900F900F90DF91CF911F913F
S11302200F91FF90EF900895843178F4623031F0AB
S1130230633031F0613029F4806403C08C5E01C006
S11302408C5A60E080680E94660008950F931F93A3
S1130250CF93DF93C82F8BE49DE10197F1F700C0A2
S1130260000084B18F6084B9249A539A569A85B158
S1130270807F85B92C985E985B9800002C9A299A07
S113028000002C9800000E944B0060E08C2F8C60D2
S11302900E94660060E088E20E94660060E080E4FC
S11302A00E946600C0E0D1E000E411E061E08991C1
S11302B00E946600C017D107C9F760E080E00E9481
S11302C01401DF91CF911F910F9108950F931F9304
S11302D0CF93DF9383E00E94260160E081E00E94D7
S11302E0660080E491E00E94830061E080E00E9467
S11302F014018AE491E00E948300C0E0D0E000E0B1
S113030010E061E089E00E94140163E070E0CE0136
S11303100E94B20061E08CE00E94140183E591E048
S11303200E948300C8010197F1F7C8010197F1F712
S1130330C8010197F1F7C8010197F1F72196C33677
S1130340D105F9F660E081E00E94660085E591E060
S11303500E94830061E080E00E94140181E691E044
S11303600E94830044E620E030E0C9010197F1F7E0
S11303704150D9F760E081E00E94660082E791E095
S11303800E94830061E080E00E9414018EE791E006
S11303900E94830080E090E0DF91CF911F910F9144
S11303A0089597FB072E16F4009407D077FD09D023
S11303B00E94E50107FC05D03EF4909581959F4F7E
S11303C00895709561957F4F0895AA1BBB1B51E159
S11303D007C0AA1FBB1FA617B70710F0A61BB70BB1
S11303E0881F991F5A95A9F780959095BC01CD0156
S10903F00895F894FFCF0C
S11303F60C12120C000000000C1204081E0000006F
S11304060A15110A040000000305090B0B1818004D
S11304161F0E0E0404040404010105051515150038
S11304260E11111F1F1F1F00000000000000000016
S1130436436F6E677261747320004C6F6164696EFA
S1130446672000250048656C6C6F20776F726C64BA
S113045600427920596F75724E616D652048657248
S113046665002020202065587472656D6500202083
S10F0476456C656374726F6E69637300FB
S9030000FC
