:020000040000FA
:1000000088830000450100004D01000059120000E6
:1000100000000000000000000000000000000000E0
:10002000000000000000000000000000510100007E
:100030000000000000000000530100005501000016
:100040005701000057010000570100005701000050
:100050005701000057010000570100005701000040
:10006000A3110000670F00005701000057010000B6
:100070005701000057010000570100005701000020
:100080005701000057010000570100002107000040
:100090002B070000350700003F070000490700005C
:1000A00000F002F800F03EF80CA030C80838241820
:1000B0002D18A246671EAB4654465D46AC4201D1A0
:1000C00000F030F87E460F3E0FCCB6460126334294
:1000D00000D0FB1AA246AB46334318473019000044
:1000E00050190000103A02D378C878C1FAD85207E4
:1000F00001D330C830C101D504680C6070470000DE
:100100000023002400250026103A01D378C1FBD833
:10011000520700D330C100D50B6070471FB51FBD1B
:1001200010B510BD01F041FA1146FFF7F7FF00F0DE
:100130002DFD01F059FA03B4FFF7F2FF03BC01F003
:100140005DFA00000748804707480047FEE7FEE7E2
:10015000FEE7FEE7FEE7FEE704480549054A064BD1
:10016000704700007D010000A100000088800000B1
:100170008883000088810000888100000520000736
:10018000408980210840002817D100BF05200007C2
:10019000808A802108400028F8D005200007408987
:1001A0008008800005210907488100BF052000075D
:1001B0004089802108400028F8D00448044908609C
:1001C00070470248024908607047000000E1F505E9
:1001D0000480000008B5002002230322120204213B
:1001E000009001F012FA0020012302460521009040
:1001F00001F00BFA0020092302460221009001F0D1
:1002000004FA00200A2302460721009001F0FDF9BC
:1002100001200023032212020321009001F0F5F9CE
:1002200008BD10B5002005210907088008201749DE
:10023000088005200007408A2021884320300521BE
:10024000090748820846408A80218843803005217A
:10025000090748820846008A0221884305210907C8
:1002600008820846008A022188430521090708827E
:1002700000BF05200007808A082108400028F8D028
:1002800000F0A6FAFFF7A6FF10BD000000330050F3
:1002900030B5EA4C237005242407A4882025AC43FC
:1002A000203405252D07AC800024E54DAC81612468
:1002B000E34D603D2C802C4624880625AC434D0040
:1002C0002C43DF4D603D2C802C4624881025AC4308
:1002D00015012C43DA4D603D2C808405A40DAC80C3
:1002E0000124D74DAC8100BFD54C248A20252C4059
:1002F000002CF9D1D34D287030BD0020D049888121
:10030000052000078088202188430521090788806F
:10031000704710B500BF0820C94960390882CAA0DB
:1003200000F081FA00BFC648008A04210840002876
:10033000F9D0C6A000F077FA00BFC148008A20219A
:1003400008400028F9D1C2A000F06DFABC48203066
:100350000488C0A000F067FAB9482038808AE00716
:10036000C00F0028D7D110BDB4490978012902D0A7
:10037000022926D11CE00021B14A91810121090402
:100380000140090CAF4A12781143AD4A603A91809E
:100390000121AB4A918100BFA949098A202211405D
:1003A0000029F9D10104090EA54A603A118208E03A
:1003B0000102090EA24A603A11820104090E11825B
:1003C00000BF00BFC1B29E4A603A1182704710B5AB
:1003D0000446A1A000F027FAFFF79BFF9FA000F0C2
:1003E00022FA2046FFF7C0FF9DA000F01CFA00BFD4
:1003F0009348008A022108400028F9D099A000F013
:1004000012FAFF2001308E496039088296A000F070
:100410000AFA00BF8A48008A042108400028F9D05F
:1004200092A000F000FA00BF8548008B0028FBD0A6
:100430008FA000F0F8F982486038008AC0B210BD81
:10044000F8B504460F4616463846FFF78DFF0025DF
:100450000BE000BF7A48008A022108400028F9D04A
:10046000C8017749603908826D1CB542F1D300BFDD
:1004700000BFEFF310800090012000F0DCF80025B1
:100480000DE000BF6E48008B0028FBD06C48603840
:10049000008A216808702068401C20606D1CB542ED
:1004A000EFD30098002802D100F0C5F802E0012047
:1004B00000F0C1F800BFF8BDF7B50F461546002D96
:1004C00001D10020FEBD01204004C01BA84204D27F
:1004D00001204004C41B264601E02C462646FFF7B7
:1004E00018FF06E0202239466846FFF7A9FF2037AB
:1004F000203C202CF6D2002C04D0224639466846F7
:10050000FFF79EFF3046DDE770B505460C46FFF766
:1005100000FF2846FFF728FF00BF4948008A022154
:1005200008400028F9D0E0B245496039088200BF90
:100530004348008A042108400028F9D000BF404801
:10054000008A202108400028F9D170BDFEB506467A
:100550000D4617460020019001204004854240D2FC
:10056000E8B2FF2101310C1AA74200DA3C46FFF73E
:10057000D0FE00BF00BFEFF310800090012000F01C
:100580005AF82846FFF7F0FE00BF00BF2C48008A4B
:10059000022108400028F9D03078294960390882C2
:1005A000761C601E84B20198401C80B20190002C21
:1005B000EBD10098002802D100F03DF802E00120C4
:1005C00000F039F800BF00BF1D48008A0421084030
:1005D0000028F9D000BF1A48008A202108400028CE
:1005E000F9D10198FEBDF7B582B00C4617460197C8
:1005F00001204004844202D3002005B0F0BD012058
:100600004004001BB84203D201204004001B0190AB
:10061000019E00250BE0B2B26119029B5819FFF749
:1006200095FF009000982D180098361A00BF002EF4
:10063000F1D12846E1E780F3108870470880000078
:1006400060130050098000004100000042000000DB
:100650004300000044000000610000006200000050
:1006600063000000640000006500000066000000F8
:10067000670000000122920302430A431A4B1A80CA
:1006800001229203024301231A430A43164B1A80A4
:100690000B225A807047144909880F229201914316
:1006A0000207920D1143104A1180704700200E4935
:1006B000088070470D490C48008802229043801C36
:1006C000094A108000BF0846491E002805D0064888
:1006D0000088022210400028F5D10020024A108133
:1006E000104640897047000000150050A0860100A8
:1006F00070B50446204600F0A1FF20461338800064
:100700002F490D58002D01D0A84708E000BFE10691
:10071000C90E012088402B49086000BF00BF70BD92
:1007200010B51320FFF7E4FF10BD10B51420FFF73C
:10073000DFFF10BD10B51520FFF7DAFF10BD10B5B3
:100740001620FFF7D5FF10BD10B51720FFF7D0FF1B
:1007500010BD10B5002819DA1B4A03071B0F083B10
:100760009B089B00D2588307DC0EFF23A3409A43CB
:100770008B071B0E8407E40EA3401A43124B040799
:10078000240F083CA408A4001A5118E00F4A0323C0
:100790001B02D21883089B00D2588307DC0EFF236C
:1007A000A3409A438B071B0E8407E40EA3401A4311
:1007B000064B032424021B198408A4001A5110BDFF
:1007C0001080000080E200E01CED00E000E100E0AD
:1007D0000520000780888021884380300521090793
:1007E000888080203D4988810020888009200880F9
:1007F000032088810846008A4021884337490882BF
:1008000001200881084680884008400088807047A1
:1008100000BF3249898A202211400029F9D0C1B293
:100820002E4A1180704700B5034603E01878FFF7A1
:10083000EFFF5B1C18780028F8D100BD00B528A098
:10084000FFF7F1FF2BA0FFF7EEFF2FA0FFF7EBFF65
:1008500031A0FFF7E8FF00BD00BF2048808AC00735
:10086000C00F0028F9D01D480088C0B2704710B5ED
:100870000446F020204003110A2B01DA302000E06A
:100880003720C018C3B21846FFF7C2FF23071B0F5B
:100890000A2B01DA302000E03720C018C3B2184616
:1008A000FFF7B6FF10BD10B504462104080EFFF790
:1008B000DEFFE0B2FFF7DBFF10BD10B50446200EEF
:1008C000FFF7D5FF2102080EFFF7D1FF2104080E24
:1008D000FFF7CDFFE0B2FFF7CAFF10BD00100050D8
:1008E0000A0D0A0D2A2A2A2A2A2A2A2A2A2A2A2AE2
:1008F0002A0000000A0D2A20554152542054455325
:1009000054202A0A0D0000002A2A2A2A2A2A2A2AE2
:100910002A2A2A2A2A0A0D000A0D48656C6C6F20C3
:10092000576F726C6421203D3D2055415254207018
:1009300072696E74665F737472696E672829203DF0
:100940003D2E0A0D00000000F8B50446534804800F
:100950005348844201DD64254DE05148844215DC52
:1009600063200001844211DD0146601A00F012FE8E
:100970004C49009000F022FD07464B4900F064FF0F
:10098000064600F0CBFD1C30C5B234E06320000108
:10099000844215DC55200001844211DD0146601AB5
:1009A00000F0F8FD4149009000F008FD074640497D
:1009B00000F04AFF064600F0B1FD001DC5B21AE086
:1009C00055200001844215DC47200001844211DDDE
:1009D0000146601A00F0DEFD3449009000F0EEFCA4
:1009E00007468121C90500F02FFF064600F096FD5D
:1009F000C5B200E000252846F8BD70B504462D4874
:100A000084420ADB0146611A6422514308464721A9
:100A1000C90000F02DFCC5B200E00025284670BDDD
:100A200070B50646012189024800FFF723FE072022
:100A3000FFF731FEFFF73EFE84B200210120C00225
:100A4000FFF718FE0720FFF726FEFFF733FE001919
:100A500084B2FFF72BFE24112401174800780028E8
:100A600002D1FF201449087013480078854201DD47
:100A700011480578012E02D0022E0AD104E020464A
:100A8000FFF762FF054606E02046FFF7B6FF054682
:100A900001E0002500BF00BF284670BD0A800000AD
:100AA000A90600000000F2420000904200006043EE
:100AB0000000C041710400008883000010B557A0F9
:100AC000FFF7B1FE5BA0FFF7AEFE60A0FFF7ABFE45
:100AD00063A0FFF7A8FE68A0FFF7A5FE0120FFF7BF
:100AE0009FFF0446FFF7C3FE6DA0FFF79CFE10BDFD
:100AF00010B56DA0FFF797FE10BD10B56FA0FFF702
:100B000092FE79A0FFF78FFE6CA0FFF78CFE80A00D
:100B1000FFF789FE86A0FFF786FE93A0FFF783FE0E
:100B20009748FFF780FE97A0FFF77DFEA4A0FFF790
:100B30007AFEB3A0FFF777FEB7A0FFF774FEFFF7CA
:100B4000D7FF10BD70B505460026B6A0FFF76BFEB7
:100B500014E0012E00D112E0FFF77EFE04466D2C5A
:100B600002D0782C08D103E0FFF7C7FF012604E08C
:100B700001202880012600E000BF00BFE9E700BF98
:100B800070BD10B5B6A0FFF74EFE10BD0EB500BF8C
:100B9000FFF747FBB7A0FFF746FEBEA0FFF743FEF7
:100BA000C4A0FFF740FECA48FFF73DFEC948FFF763
:100BB0003AFEC9A0FFF737FECBA0FFF734FED9A05D
:100BC000FFF731FEFFF799FF26E000231A460121C7
:100BD0004820FFF75DFBDBA0FFF725FE0020FFF7B5
:100BE000F6FB0290D7A0FFF71EFE0222002101A80B
:100BF000FFF762FC84B268460079010268464079DA
:100C0000081801B2009169460020085EC117090F5B
:100C100009180911009100BFD7E700000A0D0A0D5D
:100C20002A2A2A2A2A2A2A2A2A2A2A2A2A2A2A2A24
:100C3000000000000A0D2A20424154544552592018
:100C400054455354202A0A0D000000002A2A2A2A5B
:100C50002A2A2A2A2A2A2A2A2A2A2A2A0A0D000085
:100C60000A0D4261747465727920747970653A2056
:100C700043523230333200000A0D43757272656E92
:100C8000742062617474657279206C6576656C207D
:100C9000286D61782E3078464625293A2030780034
:100CA00025206C65667400000A0D4D616B6520613E
:100CB0002063686F696365203A2000000A0D3D3D9E
:100CC0003D3D3D3D3D3D3D3D3D3D3D3D3D3D3D3D54
:100CD0003D3D3D3D3D3D3D3D3D3D3D3D3D3D3D3D44
:100CE0003D3D0A0D000000003D20444131343538BF
:100CF00030205065726970686572616C204578615A
:100D00006D706C6573204D656E75203D0A0D000099
:100D1000752E2055415254205072696E74205374C0
:100D200072696E67204578616D706C650A0D000010
:100D3000662E202864697361626C656420696E2088
:100D400074686973206275696C6429205350492066
:100D5000466C617368204D656D6F727920457861CE
:100D60006D706C650A0D0000652E204932432045E8
:100D70004550524F4D204578616D706C650A0D00ED
:100D8000C8190000742E202864697361626C656460
:100D900020696E2074686973206275696C6429200B
:100DA00054696D657230202850574D302C205057B3
:100DB0004D3129204578616D706C650A0D00000089
:100DC000702E202864697361626C656420696E20EE
:100DD00074686973206275696C64292054696D6553
:100DE0007232202850574D322C2050574D332C2032
:100DF00050574D3429204578616D706C650A0D009F
:100E0000622E2042617474657279204578616D703C
:100E10006C650A0D00000000782E20457869740A80
:100E20000D0A0D000A0D0A0D5072657373206D20B6
:100E3000666F72205065726970686572616C2045DA
:100E400078616D706C6573204D656E75206F7220D2
:100E50007820746F2065786974203A2000000000C3
:100E60000A0D2020456E64206F66207465737473CC
:100E7000200A0D000A0D44413134353830205065C8
:100E8000726970686572616C204578616D706C651F
:100E9000730A0D002D2D2D2D2D2D2D2D2D2D2D2DAC
:100EA0002D2D2D2D2D2D2D2D2D2D2D2D2D2D2D0A95
:100EB0000D0000004265666F72652072756E6E6986
:100EC0006E67207468652074657374733A0A0D0048
:100ED0008419000038190000202033292042756948
:100EE0006C642E0A0D000000506C656173652C2047
:100EF000726566657220746F204441313435383034
:100F0000205065726970686572616C204578616D0A
:100F1000706C65732055736572204D616E75616CE0
:100F20000A0D0000666F722064657461696C656407
:100F300020696E737472756374696F6E732E0A0D17
:100F4000000000003100000072480078002807D13E
:100F5000092001218140704A116000BF00207047C4
:100F60000020C043FBE770B500250520000700887E
:100F70003021884305210907088008460088800839
:100F80008000088008468088102108400011002851
:100F900009D0012501206149888008460088802108
:100FA00088435E490880012D06D15D48006800280D
:100FB00002D05B480468A04770BDFFB581B004460D
:100FC0000D46164605200007808810218843103002
:100FD000052109078880002050490881F0B2488027
:100FE000002010E0C2002146D140CFB241004B4A60
:100FF00089184F81C2002946D140CFB24100474AEB
:1010000089184F82401C0428ECDB4448C089032126
:10101000090288432104890F090208433F49C88116
:101020000846C08A0321090288432904890F09025E
:1010300008433A49C8820120888009200121814063
:10104000384A116000BF04988006800E8021084352
:10105000324908800121092000F023F82D4800784A
:1010600040084000401C2B490870092001218140A4
:10107000294A803A116000BF05B0F0BD00B525488F
:1010800000784008400023490870012023498880E7
:10109000084600888021884320490880FFF754FFD4
:1010A00000BD10B5002819DA1F4A03071B0F083BC3
:1010B0009B089B00D2588307DC0EFF23A3409A4372
:1010C0008B071B0E8407E40EA3401A43164B04073C
:1010D000240F083CA408A4001A511AE00E4A803AD2
:1010E00003231B02D21883089B00D2588307DC0E0F
:1010F000FF23A3409A438B071B0E8407E40EA340F3
:101100001A43054B803B032424021B198408A400C6
:101110001A5110BD8C83000080E100E000010050F6
:101120009083000080E200E01CED00E070B5044612
:101130000D4616464348006808218843E900082206
:10114000114008433F49086008460068042188436D
:10115000B1000422114008433A490860084600687B
:10116000022188436100022211400843354908608A
:10117000FE21082000F02FF870BD334B5880998075
:10118000DA807047082001218140304A116000BF99
:1011900070470820012181402C4A8032116000BF35
:1011A000704710B52A480068002802D02848006817
:1011B000804710BD70B506460C461546012000F06C
:1011C00015FB304600F01EFB204600F02FFB2846A2
:1011D00000F026FB70BD10B5002819DA1D4A030780
:1011E0001B0F083B9B089B00D2588307DC0EFF2394
:1011F000A3409A438B071B0E8407E40EA3401A43B7
:10120000144B0407240F083CA408A4001A5118E04A
:101210000E4A03231B02D21883089B00D25883076F
:10122000DC0EFF23A3409A438B071B0E8407E40EBA
:10123000A3401A43054B032424021B198408A4006D
:101240001A5110BD003400500034005000E100E09D
:101250000C8000001CED00E000BFFEE70022030947
:101260008B422CD3030A8B4211D300239C464EE0C1
:1012700003460B433CD4002243088B4231D303097D
:101280008B421CD3030A8B4201D394463FE0C3092F
:101290008B4201D3CB01C01A524183098B4201D347
:1012A0008B01C01A524143098B4201D34B01C01A32
:1012B000524103098B4201D30B01C01A5241C308AA
:1012C0008B4201D3CB00C01A524183088B4201D319
:1012D0008B00C01A524143088B4201D34B00C01A05
:1012E0005241411A00D201465241104670475DE01A
:1012F000CA0F00D04942031000D34042534000229D
:101300009C4603098B422DD3030A8B4212D3FC2245
:10131000890112BA030A8B420CD3890192118B42C4
:1013200008D3890192118B4204D389013AD09211DA
:1013300000E08909C3098B4201D3CB01C01A524195
:1013400083098B4201D38B01C01A524143098B425E
:1013500001D34B01C01A524103098B4201D30B0147
:10136000C01A5241C3088B4201D3CB00C01A52416C
:1013700083088B4201D38B00C01A5241D9D2430853
:101380008B4201D34B00C01A5241411A00D2014690
:10139000634652415B10104601D34042002B00D5FA
:1013A0004942704763465B1000D3404201B50020BC
:1013B000C046C04602BD704770477047F0B5FF2574
:1013C0002D04C609C209FF2704462E400137CB0968
:1013D0003E4348402A402B400746002A6BD0002B52
:1013E00069D0AA4267D0AB4265D0002800DA324605
:1013F0000125ED0529432C4309022002090AD21ACE
:101400004B0C7F24E31A434C000A7C44E35C7D24AC
:101410002404121914145B00A218884201D3521C30
:1014200000E0400049420C465C4324115C43DB0170
:101430006415E318040A5C43C502200D0C464443BE
:101440006419250A5D432303EC0C0D466543000334
:101450000019EB184C42A34201D35B18401CD40581
:101460002018002B07D05B00C91804D3401C0029AA
:1014700001D1400840003F2189048A4209D3002A53
:1014800008DC1106090F04D0032149074018C00FDA
:10149000C007F0BD01224100120689187F225206C2
:1014A0009142F6D205214907C84201D59010F0BDFE
:1014B000FF20C005F0BD002F00DA32461648AA42D0
:1014C00007D2AB4205D21902090E17D0F80FC00798
:1014D000F0BDFF2563002D06AB42F9D84900A942B3
:1014E000F6D8AB4201D1A942F2D0A94201D10021E4
:1014F00001E061004908D0050843F0BD1102090E62
:10150000FBD0FF200243D005F0BD0A46014610463D
:1015100054E70000EA0400000000C07F0102C21589
:1015200004D00123DB071943002A0ADB9E239A1A01
:1015300002D40846D0407047FF2241001206914273
:1015400001D900207047C017C04370471F22030C09
:1015500002D10F2200041CD0030E01D10002083A70
:10156000030F01D10001121F830F01D18000921ED1
:10157000002801DB4000521ED205511802125118FA
:101580001922904004D3491C002801D14908490080
:1015900008467047C10FC90700D040420122920798
:1015A0001143D3E701218907D0E7754600F022F8FF
:1015B000AE46050069465346C008C000854618B0CF
:1015C00020B5FEF7C9FD60BC00274908B6460026D5
:1015D000C0C5C0C5C0C5C0C5C0C5C0C5C0C5C0C5E3
:1015E000403D49008D4670470446C046C0462046EF
:1015F000FEF7A1FD00487047248000000149182033
:10160000ABBEFEE7260002007047FFB581B004467E
:101610000D4616460A9F002F04D02946204600F0AA
:10162000B9F803E02946204600F0C2F832462946C0
:101630002046049B00F0CAF805B0F0BD5449C989A2
:101640000346133B01229A4091431A4601239340DB
:10165000DA07D20F002A01D0002393E00346133BA0
:1016600001229A4002231A40002A01D0012389E076
:101670000346133B01229A4004231A40002A01D05A
:1016800002237FE00346133B01229A4008231A40BD
:10169000002A01D0032375E00346133B01229A4040
:1016A00010231A40002A01D004236BE00346133BA9
:1016B00001229A4020231A40002A01D0052361E02C
:1016C0000346133B01229A4040231A40002A01D0CE
:1016D000062357E00346133B01229A4080231A4019
:1016E000002A01D007234DE00346133B01229A4014
:1016F000FF2301331A40002A01D0082342E00346A9
:10170000133B01229A4001235B021A40002A01D0B8
:10171000092337E00346133B01229A4001239B0231
:101720001A40002A01D00A232CE00346133B012271
:101730009A400123DB021A40002A01D00B2321E04A
:101740000346133B01229A4001231B031A40002A3F
:1017500001D00C2316E00346133B01229A400123DB
:101760005B031A40002A01D00D230BE00346133B14
:1017700001229A4001239B031A40002A01D00E2324
:1017800000E00F2301229A401143014AD1817047A2
:101790000014005030B5032800D104204401034D4B
:1017A00063199A1C01248C40148030BD0030005015
:1017B00030B5032800D104204401034D63191A1DDC
:1017C00001248C40148030BD00300050F0B5032857
:1017D00000D104204601044FF5194E00AF1DF41945
:1017E00016461E432680F0BD0030005004490968AB
:1017F00049084900C207D20F1143014A11607047DE
:1018000010340050054909680422914382000423E2
:101810001A401143014A1160704700001034005013
:101820000149C8817047000000340050054909682B
:1018300002229143420002231A401143014A1160DF
:10184000704700001034005070B5420064414B00F6
:101850005C41120E39D01B0E38D0FF2A3CD0FF2B32
:101860003AD040024902400A490A060045184E4350
:10187000000A090AD2184843ED017F3A0104731A9D
:101880004019190C4318990F04D001215B0849072E
:101890005B1A521CD80904D3401CF50301D19D06E4
:1018A00007D0FF2A08D2D50506D0E4072043401907
:1018B00070BD0125A843F4E7002A01DCE00770BDF4
:1018C0002402FF202043C00570BD1B0EFF2A03D059
:1018D000FF2B01D0E00770BDFF2645003606B5425C
:1018E00006D84D00B54203D8D218FF2A00D0E7E74A
:1018F000004870BD0000C07F818283848586878810
:10190000898B8C8D8E8F919293959697999A9C9DA9
:101910009FA0A2A3A5A7A8AAACAEB0B2B3B5B7B911
:10192000BCBEC0C2C5C7C9CCCED1D4D7D9DCDFE2DA
:10193000E6E9ECF0F3F7FAFE202032292053656C3B
:1019400065637420746865206173736F6369617483
:10195000656420686172647761726520636F6E668A
:10196000696775726174696F6E20696E2027706592
:10197000726970685F73657475702E68272E0A0D22
:101980000000000020203129204D616B6520737517
:10199000726520796F75206861766520636F6E6E61
:1019A00065637465642074686520617070726F701F
:1019B0007269617465207065726970686572616CC6
:1019C0002873292E0A0D0000712E20286469736186
:1019D000626C656420696E20746869732062756941
:1019E0006C64292051756164726174757265202878
:1019F000526F7461727920456E636F64657229203D
:101A00004578616D706C650A0D0000002C1A0000AD
:101A10000080000010000000E40000003C1A0000FC
:101A200010800000840300000001000000E1F505C3
:0C1A300000E1F5050000000000000000CF
:04000005000000A156
:00000001FF
