:020000042000DA
:1000000000980020A9040020B1040020C9040020A9
:1000100000000000000000000000000000000000E0
:10002000000000000000000000000000E1040020CB
:100030000000000000000000F9040020FB04002084
:10004000571E0020053103000D310300DD1E002086
:10005000E91E00208D3103003F1F0020471F0020B4
:10006000FD040020FD0400205F1F0020AD310300CF
:1000700057810200F71200204B1B02004B1B0200AD
:100080004B1B0200FD0400204B1B02004911002005
:100090004D11002051110020551100205911002050
:020000042000DA
:100160003200000019060020670F0020E10800207F
:10017000000000000000000063800200BD8002005B
:10018000B30D0020FB8002001981020035810200BE
:100190005D810200291E0020FF050020830D002044
:1001A0009B0D002000000000000000003F00000048
:1001B000F48B002000040000740B080048010000CC
:1001C0006807080000040000C80C080020050000B3
:1001D000000000002000000048000000580000005F
:1001E0006800000004010000160100002801000062
:1001F0002E010000202A00008E2E000001000000C9
:1002000088130000F10F0020E9600200FD93020056
:10021000DB13002019280300A5740200291A00200E
:1002200003000000D5200200E108002004000000C7
:10023000D74902000F490200831D020063910200AA
:10024000B7910200BF910200078202007182020092
:1002500004300020AD830200938402004185020037
:1002600015860200378602005F860200758602004E
:10027000F9870200258902005D8A0200D38C020002
:10028000098D02000F900200438D0200278E0200AC
:10029000F98E0200478F0200F50C0020D58F020076
:1002A00049510200775102002F5202001000000055
:1002B00020030000803E000000000000000000005D
:020000042000DA
:1002C000504600030003983A6400F401B80B000C98
:1002D000B80B120030003000CD009A01120024004B
:1002E00030006400B0001800280012001200D0078F
:1002F0000000FFFF00000000000000000000000000
:100300001F000002444131343538302D30310000B7
:1003100000000000000000000000000000000000DD
:0403200000000000D9
:020000042000DA
:10034000FFFF010000C201000000000000000000EB
:100350000000F4010100011B0A071AFFD200021578
:10036000585CDE931B0142CC9A1325009BEDC65EC0
:1003700000000000C5000000000009FF00605257A7
:100380002D424C450000000000000000000000006D
:100390000000000000000000000044413134353806
:1003A00078000000000000000000000000000000D5
:1003B000000000000000000000000000000000003D
:1003C000000000000000000000000000000000002D
:1003D0000000000000000000010000CAEA80D00711
:0403E000064064323D
:020000042000DA
:100440000348854602F05CFA00480047C7200200D6
:100450000098002010B5114906200880FF2010499F
:10046000013008600F4988683E2290432E30886032
:100470000021052000070180028A0F231B021A4376
:1004800002820122D204032308461B038418216040
:10049000001D9842FADB62B610BD00000034005027
:1004A00080E100E0003300501548804715480047C0
:1004B00004207146084203D0EFF30980124908472F
:1004C000EFF308801049084704207146084203D022
:1004D000EFF309800D490847EFF308800B490847FF
:1004E00004207146084203D0EFF309800849084709
:1004F000EFF3088006490847FEE7FEE7FEE7000045
:100500005504002041040020F509002015050020B5
:100510008705002005221207518A80231943518242
:10052000114903680B6043684B6083688B60C36844
:10053000CB6003690B6143694B6183698B61C0695F
:10054000C8610A48836A0B62C36A4B62036B8B62A1
:10055000C36BCB62436B0B63806B4863908A8006EE
:1005600001D500BE7047FEE70018080000ED00E06E
:1005700002890889B949101A80B2884201D901203C
:1005800070470020704781692039897F082904D28B
:10059000B34A8900515881617047FEE7B248B149BA
:1005A0000161B2494161B2498161B249C161B24957
:1005B0000162B2494162B2498162B249C162B24943
:1005C0000163B2494163B2498163B249C163B04931
:1005D000A5485C3140300160AF494160AF4981605E
:1005E000AF49C1600120AF49C0060860AE49CA6981
:1005F0001202120ACA61AB4980390860704710B50F
:10060000AA490020086000F061FB01208007016B0F
:1006100049004908016310BD1CB5A5480121A54E3C
:1006200001700825358002F07DF902F081FC00F0B0
:1006300082FAA14801780170A04801780170012078
:1006400002F076F96F010D203946800102F076F94B
:1006500001F0FEFA00F0F0FB00F088FA042000F050
:10066000F5F8072000F0F2F80A2000F0EFF8062075
:1006700000F0ECF80B2000F0E9F8012000F0E6F8BB
:10068000022000F0E3F8002000F0E0F88C48006859
:1006900002F05AF9E80601683943016000F022F9D6
:1006A00088480068AA2805D1142000F0CDFA14204B
:1006B00000F0D8FA0021012002F0D2FB67490220A5
:1006C000401C8842FCDB0021012002F0EBFB01F022
:1006D00085FCFFF794FFA22005242407E0827A48D6
:1006E0004188E0229143A0314180012002F032F99B
:1006F00002F036F9022803D002F032F9012807D1BE
:100700003580A08A8006FCD4618A80208143618282
:10071000022604252089000622D501208007006BCF
:1007200000041DD402F022F9C00719D1042002F000
:1007300023F9019002F026F90198002810D000203A
:10074000019060480068AA2802D1142000F08AFABB
:10075000042101A802F01CF9002801D000F0D8FA09
:1007600072B601F09DFA69460870042806D0022886
:100770000CD003280AD0012865D065E053480078E2
:10078000012802D00320087000E00E70208A284360
:1007900020824F48C0690128087811D9032849D11F
:1007A00002F0FCF8002845D002F0FEF8002841D005
:1007B000032002F0FFF800283CD04648067008E00D
:1007C000032837D102F0F6F8002833D04149012040
:1007D00008703548016929430161618A20229143EB
:1007E0006182218A31432182694609780229618A1E
:1007F00022D0294361827F212288890180231A43E4
:1008000022800022521CD2B20A2AFBD3628A102311
:100810001A436282304A491E5161218880229143E5
:10082000218029494A88BA434A8030BF0169A943D7
:10083000016109E06846C1E729436182618A1022AB
:1008400091436182EDE730BF62B663E7C106C90E2E
:100850000120884021490860704700003075000081
:10086000E42F0020942703000084004062B600DFDC
:1008700028A30200704701DF1CCA0200F8BD02DF96
:1008800040CB0200F5E703DF84D4020004DF89B027
:10089000BC330200F8BD05DFF8BD06DFEC0C030039
:1008A00070BD07DF80E100E000ED00E08C03080090
:1008B000008000200033005000000800202A0800BB
:1008C000049000200C8000202000005054020800FA
:1008D000E0010020C40608000080004080E200E043
:1008E000704700003E480178002902D08021417005
:1008F00070473C49002008703B49C8707047384831
:100900000178002902D081214170704735490120CA
:1009100008703549C870704731480178002902D005
:100920008221417070472F49022008702E49012012
:10093000C87070472A488178002904D0491E0906EA
:10094000090E817017D142780021002A04D0920745
:10095000920F0270417004E00278002A01D0521E0A
:1009600002701206120E017005D0012A02D0022A6E
:1009700001D1D1E7C3E7704710B5194CA078401CEE
:10098000A0702078002805D101F0EAFF421CFFF793
:10099000A9FF227010BD12490120C870704710498C
:1009A0000020C87070470E48C07870470020EFF3F1
:1009B0001081012282F31088052212071289120683
:1009C00005D40A48028901231A43028118460029E6
:1009D00000D0012181F310887047054800787047E6
:1009E0000180002054020800C606080000330050B1
:1009F0003E80002005221207118A04231943118228
:100A0000118A02231943118211894023194311814C
:100A1000174B01211960174B08211980518A802337
:100A200019435182144903680B6143684B61836821
:100A30008B61C368CB6103690B6243694B62836955
:100A40008B62C069C8620D48836A0B63C36A4B63DB
:100A5000036B8B63C36BCB63436B074940310B6004
:100A6000806B4860908A800601D500BE7047FEE723
:100A700080E200E0003300504018080000ED00E084
:100A800070B5364800230169DB43002901D01946BF
:100A900000E00121CA170C0F120122430C01016171
:100AA0002F490D684E682C4332430C604A60C2697E
:100AB000002A01D01C4600E00124E217650ED20195
:100AC0002A43C4610D68E4014E682C4332430C6034
:100AD0004A600268002A01D01A4600E00122026042
:100AE0000D68D4174E682A4334430A604C60826A0A
:100AF000002A00D101238362D8171A0C0004104386
:100B00000C681A044B68224318430A60486070BDA1
:100B100038B5002403252D0223462A4621462046C7
:100B2000009402F027F900232A4619460120009478
:100B300002F020F938BD10B505242407208A0221CF
:100B400088432082A08A0007FCD5FFF727FDFFF726
:100B5000DFFF608A20210843608210BD28900020BA
:100B600020900020A44900204860704770B50521FE
:100B700009070889302290430881088980221043A0
:100B80000881088980088000401C088108890823A2
:100B90001843088199480488144304804C8A9C4374
:100BA0004C820D89402425430D810D8A0426B543CE
:100BB0000D828D8AAD07FCD58F4E002575600588A6
:100BC0000126354305804589AE058D4D068801D542
:100BD0002E4300E0AE43068005887826B5432835CD
:100BE000058005880626354305804D8A1D434D82C4
:100BF0000388934303800A89A2430A8140898005C0
:100C000003D57E4905206031888001208007016876
:100C10008215914301607B4801683F225202914353
:100C2000421489180160016802031143016070BD1C
:100C30000321754809028181082242800021491C54
:100C40009629FCD382807047704948800888032227
:100C50001043088008880422104308806649012058
:100C6000087070477CB5644C217800292DD0674905
:100C70000A885207FCD4CA8800928988019111041D
:100C8000019A8918009162494843009901F098FE41
:100C90000090002020700098A060009801F0A3FD53
:100CA000054629465B4801F054FD0A2101F08FFDFD
:100CB00001F0A0FDE060284601F0B0FD564A574B18
:100CC00001F084FE01F0BEFD20617CBD10B54A48F4
:100CD0004168AA2905D07C205149081801F07CFE02
:100CE00010BDC06819210903884200D900BEFF2049
:100CF000EB30F1E770B5414C6088C006050F01F09C
:100D000071FE61881E2291436A001143618070BDAB
:100D100010B544490120C863C86B0028FCD10120EC
:100D20008007C16940480268914201D200220260F6
:100D300019238A1ADB019A4212D3016001F058FE8E
:100D40003A4A1188884201D9411A00E0091A89B249
:100D5000182905D31080012001F050FE01F054FE47
:100D600010BD08B5244989684843314901F028FE7F
:100D7000009008BD08B52049C9684843800A009022
:100D800008BD08B51C494968002903D0FFF7E9FFF1
:100D9000009008BD01F03EFEFAE708B51649496823
:100DA000002903D0FFF7E6FF009008BD01F038FEF0
:100DB000FAE708B51F4901204A695206D20F13D03D
:100DC0004A699206D20F0FD000220A610092FF22D8
:100DD0005F32009B5B1C00939342FAD34969C907B9
:100DE000C90F02D001F022FE002008BD40183721B3
:100DF000C000090140187047088000202000005002
:100E0000001000000002004020300050001600508A
:100E10000024F400002474497B14AE47E17A443F77
:100E200001120000C00000407C04080078040800A3
:100E300040420F000010005030B58D4A8D49D0055A
:100E4000048880231C4304808B4C65892D0701D4C2
:100E5000521EFAD2894C01222260894C0A882280D3
:100E6000884A4988118001889943018030BD00205B
:100E7000704770477047704700207047012189070D
:100E8000086B0722104308637047704710B57F490D
:100E90007D4808607E494C2008807D4B7D4A203B80
:100EA0001A827E497C4848807E487D4901807C4981
:100EB00019314180222141818121890001827A49B1
:100EC00041827A49018378491131418375497848D3
:100ED0002031888041217748090181807649C1808D
:100EE000754C1034C48101824182891C8182611F4A
:100EF000C182FF21463101837049418370495920E5
:100F000008806F486F4C20300480432444806E4C2E
:100F10004C82D5218180FF21D33101816B494181F0
:100F20006B4981816C496B48088059486B4960382E
:100F30004180C18810242143C18062490A3901815E
:100F4000534C6749403C61805A82082141814D4899
:100F50005B49008840390882494862490088088016
:100F600010BD4008704700B58BB05F4A42625F4ACF
:100F700082625F4A42615F4AC2625F4A02605F4AC0
:100F800002625F4A42605F4AC261404A3E480021B5
:100F900010603E484038026B03129A430263426B72
:100FA0001F231B049A4303231B04D2184263564891
:100FB0000268C3129A430260026803139A430260F4
:100FC00068464154491CC9B22829FAD3014628224F
:100FD0004E4801F031FDFFF759FF01F009FD4C4982
:100FE0000880002001F00AFD01F00EFD0BB000BDED
:100FF00010B5264A0F2124480902106023484038C2
:10100000426B1F231B049A4303231B04D218426321
:1010100000060268D208D20002600520000702899B
:1010200092089200521C0281028908231A4302810D
:10103000028A0A43028237480068002808D10E4815
:101040004189890504D501887822914308310180BE
:10105000FFF71CFF3048006F0078002804D02F48AD
:1010600000880B496039C880012001F073FC10BD75
:10107000A0860100087F040020000050008000408E
:10108000560208004A0308004C055407800000403F
:10109000602C00507F7F0000AC290000002200502F
:1010A00009090000002400502204000030D0000094
:1010B000EE110000002500502E0200004420000028
:1010C000402800500D95000002420000E4DC0000C2
:1010D0001092000053780000002A00508B1000008E
:1010E0009DD50000002600506F0E0020730E0020DA
:1010F000790E00207D0E0020750E00208B0E002042
:10110000770E0020630F002000020040200008003E
:10111000780408000C800020E00100205204080040
:1011200010B5044601F050FE0C49A000401880386C
:10113000406B002801D0804710BDE106C90E012098
:1011400088400749086010BD1320E9E71420E7E74D
:101150001520E5E71620E3E71720E1E7C890002017
:1011600080E200E030B4734C72497348603409E0A7
:1011700043681A780A6002685B1C521E4360026072
:10118000002A05D0A28B9207D20FF1D130BC704754
:10119000002242604B680224A3434B60816800290F
:1011A000F4D0826030BC0020084730B5614A938992
:1011B0008024A3439381072313810023938095897F
:1011C0002543958193809380108091819089A043DD
:1011D00090815A49A0010860594A1168FF242402ED
:1011E000A1434400214311605449803908605549A6
:1011F0000860514803760361C3604360036030BDFB
:10120000D3E74C492220086170474A4922200861EF
:10121000704708B5474901204A695206D20F13D0DA
:101220004A699206D20F0FD000220A610092FF2273
:101230005F32009B5B1C00939342FAD34A69D2074A
:10124000D20F02D022200861002008BDE1E7394812
:10125000A021016141698906C90FFBD04169490696
:10126000C90FF7D07047F2E7334B5A61D960186164
:101270003048012142688A430A4342607047F3E7DD
:1012800010B52D4CA26021606060FFF76BFF6068B5
:10129000002805D02749486802229043104348603F
:1012A00010BDEDE710B5234881680907090F012932
:1012B0001AD002291CD0042917D00C2914D11E4A97
:1012C000117E012910D141690906C90F0CD00021F6
:1012D000D160116183885B085B0083805369002BB8
:1012E00002D001205161984710BD00F005F810BDF3
:1012F000FFF738FF10BDD5E70F490E4809E0026837
:101300000B691A70CA685B1C521E0B61CA60002A06
:1013100004D04269D207D20FF1D1704700220A618E
:1013200043685B085B0043604B69002BF5D00020ED
:101330004A611847001100501C80002080E100E045
:101340000CE400E080E200E070B5EFF310850120CE
:1013500080F31088264801F075FB0446002D1DD04F
:10136000012080F31088002C23D020462038C08B29
:10137000204988421DD16189208901F069FB05005F
:101380000ED021461031A38962892089A847002800
:1013900006D001280DD002280BD105E00020E0E79F
:1013A000204601F05BFB04E0114821460C3001F0BF
:1013B0005BFBEFF31084012080F310880C48006879
:1013C000002802D1012001F055FB002C03D00120A0
:1013D00080F3108870BD0020FAE710B5BC210648E4
:1013E00001F04EFB0549012001F050FB10BD00004B
:1013F000A8050800388300000406080049130020EF
:10140000F8B50D46064681002B48EA884458521C20
:1014100020686B89018F294F51430091014640316B
:101420004A89C989511A8AB2991A89B2B94214D221
:101430009A4212D0294601F02FFB2D8920490098AD
:1014400001F0BEFA2818801C4034E0823002401CB3
:1014500080B2042101F026FBF8BD2821304601F0BE
:1014600027FBF8BDF8B50546870013480C46C05960
:10147000C9880068114E024640325389D2899A1AAF
:1014800092B28B1A9BB2B34211D20B4E8A420ED04B
:1014900001F014FBF05905225F30611C01F0CCFA19
:1014A0002802401C80B2052101F0FCFAF8BD282179
:1014B000284601F0FDFAF8BD4C030800FF7F00004C
:1014C0001027000070B516460D46104601F0FCFAD4
:1014D000002869D0340A304601F0F6FA012812D00B
:1014E000A87A1E2811D029460A310E2845D019DCC9
:1014F000801E030001F0EEFA0B255829582D5831B3
:101500005839583D5800022070BD3146274801F037
:10151000E7FA0021204601F0E9FA0221304601F005
:10152000C1FA41E018283CD006DC102819D0122856
:101530002BD0162838D130E0522822D0D22833D1EF
:1015400027E0204601F0D8FA2EE0204601F0DAFA32
:101550002AE0204601F0DCFA26E0204601F0DEFA1F
:1015600022E0204601F0E0FA1EE0204601F0E2FA17
:101570001AE0204601F0E4FA16E0204601F0E6FA0F
:1015800012E0204601F0E8FA0EE0204601F0EAFA07
:101590000AE0204601F0ECFA06E0204601F0EEFAFF
:1015A00002E0204601F0F0FA002070BD01280000A2
:1015B000F3B581B001980C460102CA1D0E31022319
:1015C000344801F0E7FA04700199054602273248D1
:1015D0008E00002C06D0042C16D0062C10D0072C20
:1015E0003FD108E0815905224968897C1140697022
:1015F0008059C77335E0084601F0D2FA687030E0D0
:1016000080590F21C1732CE0044680594068417C09
:10161000012902D1007E01280FD0019801F0C6FAFD
:1016200001210028A0590BD04268D07D00281CD091
:1016300001281AD004280DD00FE0002068700DE0BA
:101640004068C27D022A01D0042A06D1007C02280B
:101650000BD102E0107C022807D06F70A159032043
:10166000C873284601F0A8FAFEBD6970F6E7014686
:101670000A780120042A01D9002070474A78002AFC
:1016800001D0012AF8D10A79082AF5D84979082920
:10169000F2D87047021C000028050800FFB589B089
:1016A0000D4600206946059008720B98000A0090CC
:1016B00001F07CFA07460B9801F006FA00287DD06D
:1016C0000B982978000A8400764E01295ED00429FF
:1016D00004D0062943D0072963D120E06878002888
:1016E0001BD0305910224068A91C01F0A5F9002F29
:1016F00006D03159C87B032807D0042808D050E011
:101700003059C07B032803D04BE00B20C87348E05E
:101710000521009801F056FA43E00120B6E0305967
:10172000C07B0E283DD1009801F03AFA002103E079
:101730002A18401C9170C0B21028F9D3688A6946F3
:101740000883294606A808221431023001F074F9F2
:1017500006ABAA1C3946009801F03AFA21E030594C
:10176000C07B0F281DD1AA1C0A21009801F036FA6F
:10177000002F04D03946009801F036FA11E000231A
:101780001A463946009801F035FA0AE0012F08D1CF
:101790000B9801F099F901281CD0002801D00220F3
:1017A00005906846007A002811D002AA0521009809
:1017B00001F014FA6846027A602000E007E0024374
:1017C0006846027201233946009801F013FA059821
:1017D0000DB0F0BD3059C07B0228E2D168780028F6
:1017E00051D002210B9801F05DF930590722406871
:1017F000A91C173001F020F9E878002804D13059ED
:101800004068407C01283AD0009801F0F9F900289E
:1018100037D0297A009801F0F9F9002833D00098E0
:1018200001F0FAF90121009801F0FCF900282CD010
:1018300030594068417E00292BD0042929D0C17E2F
:10184000027D1140C17630594068017F427D1140D0
:1018500001776846007A0028A7D1305902214268F2
:101860000098173201F0BAF9305941684031897B4C
:10187000002913D004210098FFF79AFE91E7022077
:1018800004E0062002E0082000E003206946087218
:101890008BE70021C17630594068D9E70B21C1732D
:1018A0007FE700002805080070B504460078002591
:1018B0000D2801D00A2200E002225A494B7A002B5F
:1018C00006D00D2804D0637C032B01D0432551E0C2
:1018D000097A8A4339D10D2809D00E2802D00F2861
:1018E00003D134E0607C032804D3402542E0607CCF
:1018F0000328FAD8A07C0428F7D20A2908D0607CF3
:10190000012822D0022820D06078032809D811E0CD
:1019100001F08EF9012806D16078032803D0002851
:1019200001D0492526E001F083F9002802D1607832
:101930000228F6D83020035D22462046E17C313271
:10194000143000F019F8054614E0422512E001F0C9
:101950006FF9012807D16078052804D1A01D01F096
:101960006DF90028DDD001F063F9002802D160781C
:101970000228D6D8284670BDFFB5002086B00121C8
:101980006A461170044605910021002C06D0089D7E
:10199000099A1F239A4234D9402032E01C23069D25
:1019A000079AF7E76B185E78330001F093F81D266D
:1019B000101010101010101010262626262626268D
:1019C0002626262626261010101010102600059B0D
:1019D00003E06F46FF5CB74204D05B1E5BB2002B96
:1019E000F7DA03E0002B01DB4A2006E0059B6F4697
:1019F000FE54059B5B1CDBB205936B5C491C5918BC
:101A0000C9B2914201D20028CCD0914202D04A20E2
:101A10000AB0F0BD641CE4B2022CF9D20028B3D0A5
:101A2000F6E7000098050800F8B50C4695491646FB
:101A300009680125002702228B1C312873D012DC93
:101A40000C2874D008DC012821D0022840D00728B7
:101A50004FD00B2869D156E010287FD0112876D0BE
:101A60001228F7D18EE00123412871D008DC3228FA
:101A70006FD035286ED036286DD04028EAD1B3E03B
:101A8000422869D0432868D04428E3D1D1E0062217
:101A90007D497E4801F0D8F8002808D006227B490D
:101AA000304600F0C9FF062020700020F8BD7548C0
:101AB00001680878C00738D02078062801D227703E
:101AC000C4E006223046983100F0B6FF06200EE052
:101AD0000A786C48920728D522783E2AEFD305462B
:101AE0004A7E30465A3100F0A7FF2868407E2070B9
:101AF000A9E00878400718D520780228DFD3887C31
:101B00003070587C7AE00A785E4812070DD522784A
:101B1000202AD4D30546CA7D30461A3100F08CFF06
:101B20002868C07DE3E736E001E079E016E00A7856
:101B30005448D20674D52278202AC0D305460A7E9E
:101B40003046983100F078FF2868007ECFE70FE03C
:101B500056E02AE036E03DE05AE062E00878800690
:101B600072D520780428AAD304223046091D25E026
:101B70000878400668D52078002867D0087D08E0FE
:101B8000227060E0087800065ED5207800285DD0DD
:101B9000487D3070F4E70888C00555D520780428C2
:101BA0008DD3042230460C3108E0088880054BD5DF
:101BB0002078042883D304223046083100F03CFF0B
:101BC000042094E7088840053ED5207800283DD0C1
:101BD000887D36E00888000536D5207802288DD328
:101BE000087C3070487C09E00888C0042CD5207837
:101BF00002288ED38231087F3070487F7070BFE733
:101C00000888800420D5207800281FD0A03117E054
:101C10000888400418D52078002817D0A1310FE09B
:101C200012E0088800040FD5207800280ED0A231D9
:101C300006E00868C00307D52078002806D0A33145
:101C400008783070237000252846F8BD0425FBE78E
:101C500070B50F480F49C405228880252A43228089
:101C60000D4A53891B0701D4401EFAD20B4A0120AA
:101C700010600622054800F0DFFE2088A84320807F
:101C800070BD0000C0060800383E03003880002008
:101C9000A0860100D47F0400200000500080004096
:101CA000F0B5564D85B00026686D37460190FEF7B9
:101CB0007AFE0021524C002802D12079022800D15E
:101CC0000191504802685048002A0FD10278002A3A
:101CD0000DD04E4B0122DA63DA6B002AFCD10122CF
:101CE0009207D2691923DB019A420ED3017000F0EA
:101CF000B1FF00287ED0E078012600287AD00520A8
:101D00000007808AC00701D0042673E000F02EFE91
:101D100000286FD13E4800683F2804D12079002870
:101D200001D1286D0190A17801A800F099FF002849
:101D300060D0A17801A800F02BFE00285AD03448CA
:101D400000683F2803D100F091FF002852D02D48B1
:101D50000068AA281DD0972007210125AD07EA6B4E
:101D6000920A92027F1C3A43EA63EA6B294B800293
:101D70001A400243EA63E86BC002C00A49050843FF
:101D8000E863204804260068002807D0AA280FD05E
:101D90001DE02148FEF7F5FF0321DEE701986421ED
:101DA000C00200F00DFE2179401E0CE001210CE084
:101DB000019800F018FD1949096800F08DFC00F049
:101DC00019FD009021790029F0D100F055FF144849
:101DD000C06A8047286B0004C00FFBD0114801681F
:101DE000C905FCD500F04EFF0520000701898022BF
:101DF00091430181304605B0F0BD00006002002033
:101E0000C60608000C80002000800020C0000040B2
:101E100060010020FF03E0FF011200001880002095
:101E20001C0708000002004010B50124A407A06BA5
:101E3000FEF7B3FF5F4900F0C3FD27221201511ADC
:101E400000D101215C4A50601160206B0821884359
:101E50000843206310BD38B5002000905749082082
:101E6000088005242407218830200143218021880F
:101E700003221143218002E000BF00BF00BFA18AFE
:101E80000906F9D561898908890061814C494A8828
:101E9000520852004A80218881432180208880088E
:101EA00080002080A08A400701D5FEF744FE2089EB
:101EB000802108432081208A042188432082A08A2F
:101EC0008007FCD53F4841050268D20202D40A6966
:101ED000520702D4009A002AF6D038BD10B500F09F
:101EE000D7FE00F0DBFE10BD10B500F0DDFE0520D2
:101EF0000007418A80229143418230480189490884
:101F000049000181304800683F2801D100F0D2FE2D
:101F100001208007816904221143816100F0D0FE15
:101F200000F0D4FE00F0D8FE28480068AA2802D1AC
:101F30001420FEF789FE26490020087010BD10B558
:101F400000F0D0FE10BD10B501208007008A000708
:101F500004D500F0CDFE1E490320087010BD70B5F9
:101F60001C48008885061748AD0E44681648803026
:101F7000006F0078002802D1284600F0BFFE164806
:101F80000089134EC00507D520060BD5E00709D000
:101F9000284600F0B9FE03E0200603D5E00701D093
:101FA00002203070200403D5E00501D501203070F7
:101FB00070BD00007102000040000040003300507E
:101FC0002000005000020040600100200C80002032
:101FD0003E80002000200050002C005038B5012425
:101FE000684604700C21494800F094FE474D69464C
:101FF000EC702A1D352000F093FE002800D02C71D3
:1020000000F016FA4249322000F090FE0021322002
:1020100000F048FD00F0B2F838BD10B500F09CFAB1
:1020200010BD10B5394802238078322201023948A8
:102030000E3100F0AFFD012101701321417000F05D
:10204000BBFD10BD10B5044630482C2380783222E9
:10205000010230480E31801E00F09CFD0146203008
:10206000047200224272084600F0A6FD10BD10B5B1
:10207000502332220D21284800F08CFD044600F048
:10208000F5F9204600F098FD0221322000F00AFD0B
:1020900010BD214810B5012332220D210B3800F06C
:1020A00079FD0221017000F087FD10BD10B500F030
:1020B0005FFA10BD194B10B59A4201D91A4602E0D9
:1020C000002A00D1012200F037FE10BDF8B5064607
:1020D000114815460F46252332220D21C01C00F061
:1020E00059FD0446012020772046062239461D303E
:1020F00000F0A2FC2320065565822582204600F0D0
:1021000061FA204600F058FDF8BD00004080002034
:1021100024300020043800000E3400003075000028
:1021200010B500F00FFE254900F012FE24480818F3
:1021300010BDF8B5234D0646A876002400F002FE37
:102140002919641CE4B20874082CF7D30024102762
:10215000381BB04201DD002007E000F0F3FDC1179D
:10216000090E0918090A0902401A2855641CE4B22C
:10217000102CEDD300F0E6FD2883F8BD10B5242126
:10218000104800F0C7FD00F054F910BD10B50E481E
:1021900002238078322201020C480E3100F0FAFC52
:1021A0000D210170074920318978417000F004FD4C
:1021B0000321322000F076FC10BD0000A0BB0D0012
:1021C000A08601004C800020408000201A380000CA
:1021D00010B5084609781C460B0000F07BFC08058A
:1021E00020202008181B1E2000F0EFF917E041788E
:1021F000012904D0002902D0022903D00FE000F009
:10220000FEF90CE01146204600F044FA07E000F029
:1022100014FA04E000F012FA01E000F010FA0020D5
:1022200010BD10B50878304C801E030000F052FC41
:10223000020214188878A070C0070AD02B492A4AD5
:102240004879203AD07628480622001F891D00F0E0
:10225000F3FB00F01AFA03E0FFF7E3FE0020A070A2
:10226000002010BDF8B518460D460146122320483F
:1022700000F090FC0446284600F008FA00270028E9
:1022800021D0194EB078C0071DD030460822A91CB5
:10229000103800F0D9FC002815D130462038018BC9
:1022A0002A8891420FD101212170807E60743146CD
:1022B00010222039601C00F0BFFBB078FFF7C2FE8F
:1022C00000F0E7F900E02770204600F075FC207868
:1022D000002801D1FFF7A5FE0020F8BD10B500F0E1
:1022E000D7F9002010BD00006C8000204080002045
:1022F0001838000010B5104600F0E6FB002809D1A0
:10230000012332220D21484800F044FC01210170D4
:1023100000F052FC002010BD70B5087815460F285B
:102320002DD008DC01280DD002282CD003281CD089
:102330000E2830D11FE0102825D0112823D01228D4
:1023400029D123E04878002825D13748222332229A
:102350000D21801C00F01EFC04460146284600F0BA
:1023600008F9204600F028FC15E04878002812D132
:1023700000F013F90FE0487800F01DF90BE0487801
:1023800000F01AF907E000F01CF904E0487844284E
:1023900001D100F019F9002070BD70B51C4610463F
:1023A0000D4600F091FB022805D12049200A8870D3
:1023B000284600F03FF8002070BD70B5087815463B
:1023C0000C460A2810D1104600F07EFB04280BD1E1
:1023D0006078002802D000F0ECF805E005212846DE
:1023E00000F060FB00F0E6F8002070BD10B510466C
:1023F00000F0A6F8002010BD10B510460C4600F005
:1024000063FB012808D12078002805D1FFF705FEDD
:10241000002801D000F0D1F8002010BD10B508460A
:1024200000F0D1F8002010BD0234000040800020F0
:102430007047704770B5984D0446A878FF2812D0B1
:102440000521322000F02EFB21882980617A6971F4
:10245000214606220A31A81D00F0EEFA8F48807846
:10246000FFF7F0FD70BDFFF702FE70BDF0B504464A
:1024700093B00E202070002565708948A081E0810E
:1024800007202074012060741C20E0742746224637
:102490001F202037143238741646511E0B2000F0CE
:1024A0003FFC002805D02A46E5747EA1304600F0A6
:1024B000C3FA22463132511E0C20119200F030FC3A
:1024C000002805D03D742A4678A1119800F0B4FA8E
:1024D000E07C1A21081A45B2002D2FDD3E20694606
:1024E000087001AA022000F01BFC002806D00D2273
:1024F000684602706EA101A800F030FC68460078C2
:1025000000281BD0A84200D2054668460570E07C32
:102510006D1C8555E27C2046092115301154E17C63
:10252000401C0B186846027801A9184600F084FA8E
:1025300068460078E17C801C0818E07413B0F0BD98
:1025400010B500F0C1FA032803D0052801D00428F3
:1025500001D1FFF78CFD10BD0020594A01211170F7
:102560004D4AD378002B01D001207047D1707047BD
:102570007047032008700A204870002048820875C0
:1025800048751722CA8208220A8310224A83888348
:102590006422CA8320310870704710B501213220AF
:1025A00000F080FAFFF739FD002801D0FFF75FFD4A
:1025B00010BD704770477047704710B5FFF757FD63
:1025C00010BD704770477047704710B532481E23E2
:1025D0008078322201023B480E3100F0DBFA012103
:1025E00001704170C170102242710322827001712A
:1025F000002202728171C17100F0DEFA10BD1FB5B8
:1026000031A30FCB6C460FC423481E23807832229F
:1026100001022C480E3100F0BDFA04462848102271
:1026200044606946A01C00F007FA042020700120D5
:102630006070204600F0C0FA1FBD7047704770B54B
:1026400005461E2332220E211E4800F0A3FA04463E
:102650006878FFF76EFD0720207010490120607038
:102660002039887E2077088B60822046082210312E
:10267000143000F0E1F9094910222039A01C00F0C3
:10268000DBF9204600F098FA70BD704701207047D2
:102690007047704770470000408000206C80002029
:1026A0004C040000070103180000000002FF0000B6
:1026B000444131343538302054454D504C000000F1
:1026C000DC90002014380000000102030405060716
:1026D00008090A0B0C0D0E0F024670B54A40D30FC5
:1026E000DB0740002DD04A002AD0010E140E000254
:1026F00012020919400A520A8418E501044654439B
:10270000000A120A2E045043A4194219200CC54392
:10271000AA18120C0125AD03521C521912047F395C
:10272000240400D0521C104301D44000491EC2B200
:102730000C06C0092018401C4008802A02D003E083
:10274000002070BD40084000002900DA0020184336
:1027500070BD70B502464A40D50F40004A00ED07F3
:1027600040085208002814D0002A12D0C40DD30DFE
:1027700041020120C0055202490A520AE41A09180E
:1027800012187D34914201D3641C00E04900002CF2
:1027900001DA002070BD0023914201D3891A03435E
:1027A000400849000028F7D100290AD0914202D1FF
:1027B0000121C90705E0914201D2012101E0012177
:1027C000C943E005C018401900F058F870BD420038
:1027D00005D04200120E52428A4201DB00207047AF
:1027E000C9050818704710B500229623114600F05D
:1027F0004DF810BD410040020122400AD205090EE9
:1028000080187F2901DA00207047962903DC962280
:10281000511AC8407047963988407047C20FD20796
:10282000400040080BD0C10D0723DB01C91840024E
:102830000905400A1143C2084007114370470020B0
:1028400001467047CB0FDB07490010B54908024627
:102850000A4307D00A0D07240903E401090B121BE0
:10286000002A01DC002010BDC900440F0C43C10048
:10287000E018D205801800F001F810BD002904DA34
:10288000401C490001D140084000704770B400244A
:10289000050C05D11024000402D1002921D01124F7
:1028A000050E01D100020834050F01D10001241DDD
:1028B000850F01D18000A41C002801DB4000641CAE
:1028C000002908D020252E1B0D46F540A14000D040
:1028D00001212943084301061B1B000ADB1D02D509
:1028E000002070BC7047DB05181880180029F8DA42
:1028F000401C4900F5D170BC400840007047000002
:10290000064C0125064E05E0E36807CC2B430C3C42
:1029100098471034B442F7D3FDF796FD9430002069
:10292000C430002003B40148019001BD551B0200D2
:1029300003B40148019001BD0F3B030003B40148FB
:10294000019001BDCF2B030003B40148019001BDEC
:10295000CB2C030003B40148019001BD0990020093
:1029600003B40148019001BD1F21020003B40148D6
:10297000019001BDC12D030003B40148019001BDC8
:102980000921030003B40148019001BDC92D0300D2
:1029900003B40148019001BD2B69020003B4014852
:1029A000019001BDEB31030003B40148019001BD6A
:1029B0003D32030003B40148019001BDD72103005B
:1029C00003B40148019001BDA73A030003B40148D4
:1029D000019001BD913B030003B40148019001BD8A
:1029E0002F2F030003B40148019001BD998F02000D
:1029F00003B40148019001BD938F020003B4014864
:102A0000019001BDCD8C020003B40148019001BDCD
:102A1000418F020003B40148019001BD2768020004
:102A200003B40148019001BD3968020003B40148B4
:102A3000019001BDB780020003B40148019001BDBF
:102A4000213B030003B40148019001BDBF220200F5
:102A500003B40148019001BDEB26030003B4014813
:102A6000019001BD3524030003B40148019001BD6C
:102A70002F22020003B40148019001BDDD200300B4
:102A800003B40148019001BD533B030003B4014866
:102A9000019001BD9D20030003B40148019001BDD8
:102AA0003350020003B40148019001BD31260300F8
:102AB00003B40148019001BD5548020003B4014828
:102AC000019001BD1F50020003B40148019001BDF7
:102AD000B326030003B40148019001BDFD3D03008E
:102AE00003B40148019001BDA528030003B40148C7
:102AF000019001BDD5AF020003B40148019001BDB2
:102B0000A1A5020003B40148019001BDE3A50200A4
:102B100003B40148019001BD87A8020003B4014835
:102B2000019001BDA7A9020003B40148019001BDB5
:102B300093AA020003B40148019001BD95AB0200C5
:102B400003B40148019001BDF9AB020003B4014890
:102B5000019001BD69AC020003B40148019001BDC0
:102B600017AD020003B40148019001BD77AD02002A
:102B700003B40148019001BDF1AD020003B4014866
:102B8000019001BD85AE020003B40148019001BD72
:102B900011AF020003B40148019001BDB12303004D
:102BA00003B40148019001BD49E5020003B40148A6
:102BB000019001BDF9E3020003B40148019001BD99
:102BC000E123030003B40148019001BD4BCD020095
:102BD00003B40148019001BD99D1020003B401483A
:102BE000019001BDABD0020003B40148019001BDCA
:102BF00069D0020003B40148019001BD77CF020003
:102C000003B40148019001BD01CC020003B40148A6
:102C1000019001BD29CC020003B40148019001BD1F
:102C200015D2020003B40148019001BD8DD202000B
:102C300003B40148019001BD7F0C030003B40148B7
:102C4000019001BDAB0C030003B40148019001BD2C
:102C5000773B030003B40148019001BD79200300D4
:102C600003B40148019001BD2129030003B40148C8
:102C7000019001BDD990020003B40148019001BD4B
:102C8000C768020003B40148019001BD0D2C030088
:102C900003B40148019001BD1531030003B401489C
:102CA000019001BD1B66020003B40148019001BD03
:102CB000652C030003B40148019001BDF7930200A5
:102CC00003B40148019001BDDB2E030003B40148A9
:102CD000019001BD231D020003B40148019001BD14
:102CE000C32C030003B40148019001BD3B66020000
:102CF00003B40148019001BD2B66020003B40148F2
:102D0000019001BD038D020003B40148019001BD93
:102D1000CF8F020003B40148019001BD533B030073
:102D200003B40148019001BDD129030003B4014857
:102D3000019001BD8725030003B40148019001BD46
:102D40002528030003B40148019001BDFD3A0300AA
:102D500003B40148019001BDD33A030003B4014814
:102D6000019001BD213B030003B40148019001BD66
:102D70008D3D0300FFB581B00C4605460A461F464F
:102D8000012000210A9EFFF7EFFF2A01FFF7ECFF69
:102D90000C4B1A685B6810401940084300D100BE14
:102DA000002E2146284602D000F05AF801E000F03B
:102DB00079F83B4621462846039A00F095F805B07D
:102DC000F0BD00002090002010B5244CE3890122C2
:102DD0001146133881408B43C80701D0002038E0EA
:102DE000880701D5012034E0480701D5022030E0F2
:102DF000080701D503202CE0C80601D5042028E0EF
:102E0000880601D5052024E0480601D5062020E0EB
:102E1000080601D507201CE0C80501D5082018E0E8
:102E2000880501D5092014E0480501D50A2010E0E5
:102E3000080501D50B200CE0C80401D50C2008E0E2
:102E4000880401D50D2004E0480401D50E2000E0DF
:102E50000F2082401343E38110BD00000014005096
:102E600070B504460D460A4601200021FFF77CFF9D
:102E70002201FFF779FF094A136852681840114090
:102E8000084300D100BE032C00D104240449600192
:102E900040180121A940418070BD00002090002011
:102EA0000030005070B504460D460A46012000214E
:102EB000FFF75AFF2201FFF757FF094A13685268CC
:102EC00018401140084300D100BE032C00D1042457
:102ED0000449600140180121A940818070BD0000B3
:102EE0002090002000300050F8B5164604460D46EC
:102EF0000A461F4601200021FFF736FF2201FFF797
:102F000033FF094B1A685B6810401940084300D131
:102F100000BE032C00D1042404496001401869005C
:102F200008183E43C680F8BD2090002000300050B5
:102F3000FEB50020214E034628220021424392196B
:102F40008C00491C13510A29FADB401C0428F3DBCE
:102F5000FDF796FD194800220838026042601546C8
:102F6000002417486900475A0120A04080B2074258
:102F70001CD0282068438019A1004058411C19D05A
:102F8000002810D0C1172246FFF7EEFE2A01FFF7F6
:102F9000EBFE0A4B083B1A685B681043074A19436B
:102FA000083A10605160641C0A2CDDDB6D1C042D96
:102FB000D6DBFEBD0095019400BEE3E7289000201B
:102FC0001A30002002E008C8121F08C1002AFAD1F6
:102FD00070477047002001E001C1121F002AFBD199
:102FE0007047000071050020C5140020B1150020B5
:102FF0006F1600209D16002001140020651400208B
:10300000A91800200101000A04280A040203AA00EA
:1030100055032A00A001FFFF2C01FF003F00FF0322
:10302000FF010000000000008C30002070800020B4
:103030000600010001340000F522002000340000E9
:103040001923002000380000BB23002001380000B5
:103050009B23002003380000ED23002000C800005F
:10306000F9230020103400001D2400201338000034
:10307000D12100201538000023220020173800003D
:103080006522002019380000DD22002034300020A5
:103090000B000000C43000200080002074000000FD
:1030A000D42F0020C430002020900020C400000055
:1030B000D42F002068070800202A0800E00500003F
:0430C000D42F0020E9
:040000052000044192
:00000001FF
